:100000000C945F000C9400000C9400000C94000011
:100010000C9400000C9400000C9400000C94000060
:100020000C9400000C9400000C9400000C94000050
:100030000C9400000C9400000C9400000C94000040
:100040000C9400000C9400000C9400000C94000030
:100050000C9400000C9400000C9400000C94000020
:100060000C9400000C9400000C9400000C94000010
:100070000C9400000C9400000C9400000C94000000
:100080000C9400000C9400000C9400001027E8036E
:1000900064000A00010000100001100001004C4B38
:1000A0002D41546D6567613132382D4320525332F2
:1000B000333220436F6D20546573740D0A00F89439
:1000C000EE27ECBBF1E0F5BFE5BFE0936C00F8E193
:1000D000F1BDE1BD8DE0A2E0BB27ED938A95E9F784
:1000E00080E090E1A0E0B1E0ED930197E9F78BBFEC
:1000F000EFEFEDBFE0E1EEBFC0E0D5E00C94800093
:10010000E0E0EBB9E8E0EAB9E6E0E0939500E0E092
:10011000E0939000E7E6E9B9EEE9F0E0FA93EA93BC
:1001200080E00E94DD012296F7CFFFCF5D9BFECFDE
:10013000E881ECB921960895EA81EA93F7DFA88176
:10014000B981ED91FD913196FE93EE93239608953A
:1001500026970E94520210E0AC85BD85E0E0F0E0F9
:10016000ED93FC93EA89FB893196EA8BFB8B3197FF
:10017000E4912E2FE03011F40C94D501E12FE03002
:1001800039F4253211F411E002C00E9419020CC1A9
:10019000E130A9F4253219F40E94190204C112E0D9
:1001A00040E000E02D3211F401E0FEC02B3211F4EA
:1001B0004BE2FAC0203211F440E2F6C002C0E23055
:1001C00039F450E013E0203311F40068EDC004C0AE
:1001D000E33011F00C94D401203310F02A3308F0EE
:1001E00007C0AAE05A9F502DE22FE0535E0FDCC0FB
:1001F000E22FE33649F40E942202E889F989A481BA
:10020000AA930E942802CFC0E33741F40E94220241
:100210000E9430020E9404021E2F0AC0E03761F4DF
:100220000E9422020E9430020E940E021E2F0860CD
:1002300002600F7730E035C0E43611F0E93611F492
:10024000046002C0E53731F4ECE8F0E0EE83FF83B0
:1002500015E00DC0E83511F4086004C0E83711F06E
:100260000C94D301E6E9F0E0EE83FF8314E002FF93
:1002700014C00E9422020E943A02AB85AA233AF4DB
:10028000EA85FB850E944602EA87FB874DE2403003
:1002900011F01F5F01C00B7F04C00E9422020E9468
:1002A0003A0200FD11C0151778F407FF08C002FFDD
:1002B00004C00B7F242F115001C020E301C020E2B5
:1002C0000E9419025150EFCF312F01FF17C030307B
:1002D000A1F003FF06C0EE81FF812591EE83FF832D
:1002E00005C0AE81BF812D91AE83BF830E941902EC
:1002F000503009F051503150EACF4BC020E3EE812D
:10030000FF810E944E02E887F987EE81FF813296D5
:10031000EE83FF83E885F985AA85BB85AE17BF0705
:1003200050F02F5FA885B985EA85FB85EA1BFB0B9A
:10033000EA87FB87EFCF2A3328F003FF02C0295F4B
:1003400001C0295D04FD1AC0213320F4A885B985B8
:10035000119709F409C0531710F000FF01C013C032
:1003600020E207FF0BC020E3006102FF07C00B7F04
:100370004A930E942802503009F051500E941902FD
:10038000503009F051503150A885B985129708F0C6
:10039000B5CF00FF08C0503031F05150E0E2EA9391
:1003A0000E942802F8CF10E0DDCEAC85BD850E940A
:1003B0004A020E94590264960895FF92F82E2697E9
:1003C0001A930A93DE0114960E9442028D01E0E026
:1003D000EC83ED83EE83EF83DE0118960E944202E8
:1003E0000E944A02FA93EA931A930A93ECE9F0E026
:1003F000FA93EA93FE013896FA93EA93A9DE1981FB
:1004000008812896FF900895A991B991EE27FF27BA
:100410006D91662311F03196FBCF0895AA27BB2773
:10042000E991F9910590002011F01196FBCFFD01A3
:1004300008952A93ED85FE85FA93EA93E989FA896E
:1004400009950895E889F9893497E88BF98B08951F
:10045000ED85FE85FA93EA93E989FA89099508956D
:10046000A889B98914960E944A02EE83FF83FA9301
:10047000EA930895A889B98914960E944A02EA87E6
:10048000FB8708950024AF0DB01D0895F195E19507
:10049000F0400895ED91FC91119708950590F49125
:1004A000E02D08955A934A933A932A931A930A9304
:1004B00008955D814C813B812A81198108810895CD
:00000001FF
