:0E0000000C944F000C9400000C9400000C9423
:10000E0000000C9400000C9400000C9400000C9462
:10001E0000000C9400000C9400000C9400000C9452
:10002E0000000C9400000C9400000C9400000C9442
:10003E0000000C9400000C9400000C9400000C9432
:10004E0000000C9400000C9400000C9400000C9422
:10005E0000000C9400000C9400000C9400000C9412
:10006E0000000C9400000C9400000C9400000C9402
:10007E0000000C9400000C9400000C94000010275B
:10008E00E80364000A0001000010000110000100E6
:10009E00F894EE27ECBBF1E0F5BFE5BFE0936C0002
:1000AE00F8E1F1BDE1BD8DE0A2E0BB27ED938A95AD
:1000BE00E9F780E090E1A0E0B1E0ED930197E9F778
:1000CE008BBFEFEFEDBFE0E1EEBFC0E0D5E00C94EB
:1000DE007000E0E0E0936500E3E1E0936400E091FE
:1000EE006300E47011F4E1E007C0E0916300E87092
:1000FE0011F4E2E001C0E3EFE0936500F0CFFFCF33
:00000001FF
