:020000000C945E
:1000020053000C9400000C9400000C9400000C941B
:1000120000000C9400000C9400000C9400000C945E
:1000220000000C9400000C9400000C9400000C944E
:1000320000000C9400000C9400000C9400000C943E
:1000420086000C9400000C9400000C9400000C94A8
:1000520000000C9400000C9400000C9400000C941E
:1000620000000C9400000C9400000C9400000C940E
:1000720000000C9400000C9400000C9400000C94FE
:1000820000000C9400000C9400003F065B4F666D6C
:100092007D277F6F00000A0000058C00020004002B
:1000A20096000000F894EE27ECBBF1E0F5BFE5BF47
:1000B200E0936C00F8E1F1BDE1BD8DE0A2E0BB2769
:1000C200ED938A95E9F780E090E1A0E0B1E0ED934D
:1000D2000197E9F7E8E9F0E085919591009761F0E1
:1000E200A591B59105901590BF01F00105900D9273
:1000F2000197E1F7FB01F0CF8BBFEFEFEDBFE0E13E
:10010200EEBFC0E0D5E00C94DD00AA93BA93EA9367
:10011200FA93EFB7EA93ABE0B5E0ED91FD9131963A
:10012200FE93EE93A0910B05B0910C05AA3FE0E07F
:10013200BE0779F4F20131962F01E0E0E0930B055E
:10014200E0930C05E3E6F0E0E415F50511F4442430
:100152005524E2B7EA5FE2BFE991EFBFF991E99175
:10016200B991A99118950E94370120E030E0AC8145
:10017200BB27E4E6F0E00E941B01DF01EAE0F0E0C9
:100182000E9416018F01AC81BB27EAE0F0E00E94D9
:100192001B019F01E2E0E8BBA0E0B5E0A00FB11FA8
:1001A20019D0E1E0E8BBA0E0B5E0A20FB31F12D086
:1001B2000E943C0125960895EFEFEABBE7BBE4E01D
:1001C200E3BFE6E0E2BFE1E0E7BF78944A92CBDF2B
:1001D200FDCFFFCFEC91EBBBE5E0F0E0FA93EA93C1
:1001E2000C94F300E991F991309639F080EA9FE09E
:1001F2000197F1F7A8953197C9F70895F195E1951F
:10020200F04008950024112490E1AA0FBB1F001CA6
:10021200111C0E1A1F0A18F40E0E1F1E01C0A16037
:100222009A9599F7FD01D001089512D0EBDF0EF4F3
:10023200E5DF0895E894B7FF04C0A095B095119644
:100242006894F7FDDBDFDEDFFD010EF4D7DF0895F2
:10025200E894F7FF02C0D2DF6894B7FF06C0A0950A
:10026200B095119600F8039400FA08953A932A93F0
:100272001A930A9308953B812A811981088108956E
:00000001FF
