:100000000C9446000C9465000C9465000C946500FB
:100010000C9465000C9465000C9465000C946500CC
:100020000C9465000C9465000C9465000C946500BC
:100030000C9465000C9465000C9465000C946500AC
:100040000C9465000C9465000C9465000C9465009C
:100050000C9465000C9465000C9465000C9465008C
:100060000C9465000C9465000C9465000C9465007C
:100070000C9465000C9465000C94E5000C946500EC
:100080000C9465000C9465000C94650011241FBE4F
:10009000CFEFD0E1DEBFCDBF11E0A0E0B1E0E0E600
:1000A000F2E000E00BBF02C007900D92A230B10752
:1000B000D9F711E0A2E0B1E001C01D92A232B10770
:1000C000E1F70E94BC000C942E010C94000090E01B
:1000D00005C00F920F900F920F909F5F9817C8F373
:1000E00008950F931F93CF93DF938C01C0E0D0E06E
:1000F0000DC08AEF0E9467008AEF0E9467008AEFB6
:100100000E9467008AEF0E9467002196C017D107FE
:1001100080F3DF91CF911F910F9108955D9BFECFEA
:100120008CB9089520E030E009C0FC01E20FF31F14
:10013000E0815D9BFECFECB92F5F3F4F261737075D
:10014000A4F308955D9BFECF80939C00089520E06A
:1001500030E00AC0FC01E20FF31FE0815D9BFECF9F
:10016000E0939C002F5F3F4F261737079CF30895BD
:100170005F9BFECF8CB10895F8941092900028E018
:1001800029B91BB898E99AB986E080939500109236
:1001900098002093990010929B0090939A0080936E
:1001A0009D0078948FEF8ABB8BBB88EE93E00E9412
:1001B00071008BB35D9BFECF90E08095909587702A
:1001C0009070805D80939C00F0CF1F920F920FB6CD
:1001D0000F9211248F939F9380919C00823339F466
:1001E00080910001909101018E7F907029C0813330
:1001F00031F48091000190910101816021C084332C
:1002000039F480910001909101018D7F907018C0A8
:10021000833331F48091000190910101826010C01C
:10022000863339F480910001909101018B7F9070A9
:1002300007C0853349F480910001909101018460E9
:100240009093010180930001809100018BBB9F91ED
:100250008F910F900FBE0F901F901895F894FFCFBD
:02026000FF009D
:00000001FF
