:100000000C9460000C9400000C9400000C94000010
:100010000C9400000C9400000C9400000C94000060
:100020000C9400000C9400000C9400000C94000050
:100030000C9400000C9400000C9400000C94000040
:100040000C9400000C9400000C9400000C94000030
:100050000C9400000C9400000C9400000C94000020
:100060000C9400000C9400000C9400000C94000010
:100070000C9400000C9400000C9400000C94000000
:100080000C9400000C9400000C9400001027E8036E
:1000900064000A0001000010000110000100686FF8
:1000A00075723A202564206D696E7574653A202555
:1000B00064207365636F6E643A2025640D0A000046
:1000C000F894EE27ECBBF1E0F5BFE5BFE0936C00E0
:1000D000F8E1F1BDE1BD8DE0A2E0BB27ED938A958B
:1000E000E9F780E090E1A0E0B1E0ED930197E9F756
:1000F000EFEFEDBFE0E1EEBFC0E0D5E00C94CD0046
:10010000E4EAE09374000E945803E9F30E945D035F
:100110000E945803E9F30E9464030E945803E9F324
:10012000E881E0937300E4E8E09374000E945803D0
:10013000E9F3E4E9E09374002EC01A9310E0E4EAD6
:10014000E09374000E945803E9F30E945D030E944B
:100150005803E9F30E9464030E945803E9F3E4EAB8
:10016000E09374000E945803E9F3E1EDE09373001B
:10017000E4E8E09374000E945803E9F3E4E8E093B4
:1001800074000E945803E9F310917300E4E9E093CE
:100190007400E12F188122960895EFEFE1BBE0E0B3
:1001A000EBB9E8E0EAB9E6E0E0939500E0E0E0933F
:1001B0009000E7E6E9B9E2E1E0937000E0E0E09367
:1001C0007100E4E0E0937400E0E0EA93EA9398DFE2
:1001D000E1E0EA93E3E0EA9393DFE2E0EA93E6E02A
:1001E000EA938EDFE7E0EA93E3E0EA9389DFE0E079
:1001F0000E946B03E0930505E1E00E946B03E0932E
:100200000405E2E0EA9399DFE0930005F0E0EF7087
:10021000F070E0930105E0910005F0E0E073F0700C
:10022000E0930205F0E00E94DD03AAE0B0E0EA02FC
:10023000F001E0930205A0910205BB27E0910105C2
:10024000F0E0EA0FE0930305EEE9F0E0FA93EA93B9
:10025000E09103050E948D03E09104050E948D0347
:10026000E09105050E948D038CE00E941F032E96ED
:10027000BECFFFCF5D9BFECFE881ECB921960895FC
:100280001A930A93AC81BD810E94E6033097D9F09E
:10029000AA81BB810E94E6038F01309749F00230AA
:1002A000E0E01E0778F0F80131978F01ED93FC93A1
:1002B000AC81BD81ED91FD913196FE93EE93319726
:1002C000AE81A08303C0EE81EA93D4DF1981088157
:1002D0002796089526970E94FA0310E0EA89FB8981
:1002E0003196EA8BFB8B3197E4912E2FE03011F49D
:1002F0000C941B03E12FF0E0309739F4253211F410
:1003000011E002C00E94930395C1E130A0E0FA071A
:10031000A9F4253219F40E9493038BC112E040E046
:1003200000E02D3211F401E085C12B3211F44BE2D3
:1003300081C1203211F440E27DC104C0E230A0E06E
:10034000FA0761F450E013E0203339F40E949E0371
:10035000E0E8F0E0EA2B0E2F6DC106C0E330A0E02C
:10036000FA0711F00C941A03203310F02A3308F026
:1003700015C0A52FB0E0EAE0F0E0EA02F0015E2F40
:10038000652F7727A22FB0E0E0E3F0E00E94F303AF
:10039000EA1BFB0BDB01EA0F5E2F4CC10E94A1039D
:1003A000E336A0E0FA0749F40E94A403E889F9893A
:1003B000A481AA930E94AA033CC1E337A0E0FA07F4
:1003C00041F40E94A4030E94B4030E9443031E2F21
:1003D00011C0E037A0E0FA07D9F40E94A4030E94FC
:1003E000B4030E944D031E2F0E949E03E8E0F0E03C
:1003F000EA2B0E2F0E949E03E2E0F0E0EA2B0E2F84
:100400000E949E03EFE7FFEFEA230E2F30E04FC07C
:10041000E436A0E0FA0721F0E936A0E0FA0739F463
:100420000E949E03E4E0F0E0EA2B0E2F04C0E537C3
:10043000A0E0FA0731F4ECE8F0E0EE83FF8315E08A
:1004400016C0E835A0E0FA0739F40E949E03E8E000
:10045000F0E0EA2B0E2F06C0E837A0E0FA0711F013
:100460000C941903E6E9F0E0EE83FF8314E00E94A8
:100470009E030E94BE03B9F00E94A4030E94C4031D
:10048000AB85AA233AF4EA85FB850E94D903EA8763
:10049000FB874DE2403011F01F5F04C00E949E03B5
:1004A0000E94CC0304C00E94A4030E94C4030E94C3
:1004B000D103E9F41517D8F40E949E03E0E8F0E0B8
:1004C000EA23FB23309771F00E949E030E94BE0333
:1004D00039F00E949E030E94CC03242F115001C0CA
:1004E00020E301C020E20E9493035150E3CF312F5B
:1004F0000E949E03E2E0F0E0EA23FB23309701F143
:100500003030E9F00E949E03E8E0F0E0EA23FB23AC
:10051000309741F0EE81FF813196EE83FF83319772
:10052000E49105C0AE81BF81ED91AE83BF83EA93B4
:100530000E94AA03503009F051503150E1CF6EC0F3
:1005400020E3EE81FF810E94EA03E887F987EE81CC
:10055000FF813296EE83FF83E885F985AA85BB8506
:10056000AE17BF0750F02F5FA885B985EA85FB85D8
:10057000EA1BFB0BEA87FB87EFCF2A3380F00E9450
:100580009E03E8E0F0E0EA23FB23309721F00E948D
:10059000A103379603C00E94A103B7962E2F0E9495
:1005A0009E03E0E1F0E0EA23FB23309761F521337D
:1005B00020F4A885B985119709F410C0531718F0D5
:1005C0000E94D10309F024C020E20E949E03E0E8CB
:1005D000F0E0EA23FB233097B1F020E3A02FB0E056
:1005E000E0E1F0E0EA2B0E2F0E949E030E94BE0382
:1005F00051F00E949E030E94CC034A930E94AA03DA
:10060000503009F051500E949303503009F051507E
:100610003150A885B985129708F092CF0E94D10376
:1006200041F0503031F05150E0E2EA930E94AA03C9
:10063000F8CF10E053CE0E94010464960895FF9213
:10064000F82E22971A930A93DE010E94D5038D019A
:10065000E0E0EA83EB83DE0114960E94D5030E945A
:10066000E603FA93EA931A930A93FE013696FA93F5
:10067000EA93E0E0F0E0FA93EA932CDE1981088136
:100680002496FF900895A991B991EE27FF276D91C7
:10069000662311F03196FBCF0895AA27BB27E99175
:1006A000F9910590002011F01196FBCFFD010895FE
:1006B000E0917400F0E0E0780895E0EDE0937300DD
:1006C000E4E8E09374000895E981E0937300E4E8BE
:1006D000E09374000895EA930E949D00E093000562
:1006E000F0E0EF70F070E0930105E0910005F0E0BC
:1006F000E077F070E0930205F0E00E94DD03AAE0ED
:10070000B0E0EA02F001E0930205A0910205BB27E8
:10071000E0910105F0E0EA0F0895FF2766277727AB
:100720000E94EE0308952A93EF85F889FA93EA93DD
:10073000FE013F96FA93EA930C944001A02FB0E09B
:100740000895E22FF0E00895E889F9893497E88B5D
:10075000F98B0895EF85F889FA93EA93FE013F96A5
:10076000FA93EA930C944001A889B98914960E94DF
:10077000E603EE83FF83FA93EA930895E4E0F0E062
:10078000EA23FB2330970895A889B98914960E941B
:10079000E603EA87FB870895EBEFFFEFEA230E2FCE
:1007A0000895E02FF0E0E17008950024AF0DB01D32
:1007B0000895F195E195F0400895F595E795F59543
:1007C000E795F595E795F595E7950895ED91FC91F9
:1007D000119708950590F491E02D08957A936A9306
:1007E000FA93EA9308951B2EBF2FF12D1A2EAE2FE8
:1007F000E12D08955A934A933A932A931A930A93B0
:1008000008955D814C813B812A8119810881089579
:00000001FF
